:030000000208C132
:0C08C100787FE4F6D8FD75810A02085427
:0808CD0073696C69636F6E0032
:10088C007F381208A57F0C1208A57F011208A57FDE
:09089C00061208A57F800208A5E0
:0E08A5008FA0C280C281D282120872C282224B
:0E08B3008FA0D280C281D282120872C282222D
:10082F008B088A09890AAB08AA09A90A120800606D
:10083F0013050AE50A7002050914F9120800FF12E0
:05084F0008B380E22265
:10087200900000AF82AE83E4FCFD7B507AC3F9F8AE
:09088200D31208194003A380EA17
:01088B00224A
:1008540012088C7F801208A57BFF7A0879CD1208D4
:0E0864002F1208727F011208A512087280E59B
:10080000BB010689828A83E0225002E722BBFE02F6
:09081000E32289828A83E4932229
:10081900EB9FF5F0EA9E42F0E99D42F0EC6480C856
:0608290064809845F022F6
:00000001FF
