:030000000208A54E
:0C08A500787FE4F6D8FD75810B02080096
:0C08B1004845592053494C49434F4E0024
:10080000758920759850758DFDD28E7BFF7A087999
:10081000B11208551208963098FD859908C298E5DE
:100820000864416005E508B461051208BD801CE557
:100830000864426005E508B46204D281800DE508D1
:1008400064436005E508B46302C281850899309964
:05085000FDC29980C209
:100855008B098A0A890BAB09AA0AA90B12087D60C4
:1008650016050BE50B7002050A14F912087DF599BA
:080875003099FDC29980DF22D9
:0E089600E4FFFE0FBF00010EBE27F8BF10F5F5
:0108A4002231
:0A08BD00D281120896C2810208964B
:10087D00BB010689828A83E0225002E722BBFE0279
:09088D00E32289828A83E49322AC
:00000001FF
